{
  "_format": "hh-sol-artifact-1",
  "contractName": "MyEpicNft",
  "sourceName": "contracts/MyEpicNft.sol",
  "abi": [
    {
      "inputs": [],
      "stateMutability": "nonpayable",
      "type": "constructor"
    },
    {
      "anonymous": false,
      "inputs": [
        {
          "indexed": true,
          "internalType": "address",
          "name": "owner",
          "type": "address"
        },
        {
          "indexed": true,
          "internalType": "address",
          "name": "approved",
          "type": "address"
        },
        {
          "indexed": true,
          "internalType": "uint256",
          "name": "tokenId",
          "type": "uint256"
        }
      ],
      "name": "Approval",
      "type": "event"
    },
    {
      "anonymous": false,
      "inputs": [
        {
          "indexed": true,
          "internalType": "address",
          "name": "owner",
          "type": "address"
        },
        {
          "indexed": true,
          "internalType": "address",
          "name": "operator",
          "type": "address"
        },
        {
          "indexed": false,
          "internalType": "bool",
          "name": "approved",
          "type": "bool"
        }
      ],
      "name": "ApprovalForAll",
      "type": "event"
    },
    {
      "anonymous": false,
      "inputs": [
        {
          "indexed": false,
          "internalType": "address",
          "name": "sender",
          "type": "address"
        },
        {
          "indexed": false,
          "internalType": "uint256",
          "name": "tokenId",
          "type": "uint256"
        }
      ],
      "name": "NewEpicNftMinted",
      "type": "event"
    },
    {
      "anonymous": false,
      "inputs": [
        {
          "indexed": true,
          "internalType": "address",
          "name": "from",
          "type": "address"
        },
        {
          "indexed": true,
          "internalType": "address",
          "name": "to",
          "type": "address"
        },
        {
          "indexed": true,
          "internalType": "uint256",
          "name": "tokenId",
          "type": "uint256"
        }
      ],
      "name": "Transfer",
      "type": "event"
    },
    {
      "inputs": [
        {
          "internalType": "address",
          "name": "to",
          "type": "address"
        },
        {
          "internalType": "uint256",
          "name": "tokenId",
          "type": "uint256"
        }
      ],
      "name": "approve",
      "outputs": [],
      "stateMutability": "nonpayable",
      "type": "function"
    },
    {
      "inputs": [
        {
          "internalType": "address",
          "name": "owner",
          "type": "address"
        }
      ],
      "name": "balanceOf",
      "outputs": [
        {
          "internalType": "uint256",
          "name": "",
          "type": "uint256"
        }
      ],
      "stateMutability": "view",
      "type": "function"
    },
    {
      "inputs": [
        {
          "internalType": "uint256",
          "name": "tokenId",
          "type": "uint256"
        }
      ],
      "name": "getApproved",
      "outputs": [
        {
          "internalType": "address",
          "name": "",
          "type": "address"
        }
      ],
      "stateMutability": "view",
      "type": "function"
    },
    {
      "inputs": [],
      "name": "getTotalNFTsMintedSoFar",
      "outputs": [
        {
          "internalType": "uint256",
          "name": "",
          "type": "uint256"
        }
      ],
      "stateMutability": "view",
      "type": "function"
    },
    {
      "inputs": [
        {
          "internalType": "address",
          "name": "owner",
          "type": "address"
        },
        {
          "internalType": "address",
          "name": "operator",
          "type": "address"
        }
      ],
      "name": "isApprovedForAll",
      "outputs": [
        {
          "internalType": "bool",
          "name": "",
          "type": "bool"
        }
      ],
      "stateMutability": "view",
      "type": "function"
    },
    {
      "inputs": [
        {
          "internalType": "string",
          "name": "word",
          "type": "string"
        }
      ],
      "name": "makeAnNft",
      "outputs": [],
      "stateMutability": "nonpayable",
      "type": "function"
    },
    {
      "inputs": [],
      "name": "name",
      "outputs": [
        {
          "internalType": "string",
          "name": "",
          "type": "string"
        }
      ],
      "stateMutability": "view",
      "type": "function"
    },
    {
      "inputs": [
        {
          "internalType": "uint256",
          "name": "tokenId",
          "type": "uint256"
        }
      ],
      "name": "ownerOf",
      "outputs": [
        {
          "internalType": "address",
          "name": "",
          "type": "address"
        }
      ],
      "stateMutability": "view",
      "type": "function"
    },
    {
      "inputs": [
        {
          "internalType": "uint256",
          "name": "tokenId",
          "type": "uint256"
        }
      ],
      "name": "pickRandomFirstWord",
      "outputs": [
        {
          "internalType": "string",
          "name": "",
          "type": "string"
        }
      ],
      "stateMutability": "view",
      "type": "function"
    },
    {
      "inputs": [
        {
          "internalType": "uint256",
          "name": "tokenId",
          "type": "uint256"
        }
      ],
      "name": "pickRandomSecondWord",
      "outputs": [
        {
          "internalType": "string",
          "name": "",
          "type": "string"
        }
      ],
      "stateMutability": "view",
      "type": "function"
    },
    {
      "inputs": [
        {
          "internalType": "uint256",
          "name": "tokenId",
          "type": "uint256"
        }
      ],
      "name": "pickRandomThirsWord",
      "outputs": [
        {
          "internalType": "string",
          "name": "",
          "type": "string"
        }
      ],
      "stateMutability": "view",
      "type": "function"
    },
    {
      "inputs": [
        {
          "internalType": "address",
          "name": "from",
          "type": "address"
        },
        {
          "internalType": "address",
          "name": "to",
          "type": "address"
        },
        {
          "internalType": "uint256",
          "name": "tokenId",
          "type": "uint256"
        }
      ],
      "name": "safeTransferFrom",
      "outputs": [],
      "stateMutability": "nonpayable",
      "type": "function"
    },
    {
      "inputs": [
        {
          "internalType": "address",
          "name": "from",
          "type": "address"
        },
        {
          "internalType": "address",
          "name": "to",
          "type": "address"
        },
        {
          "internalType": "uint256",
          "name": "tokenId",
          "type": "uint256"
        },
        {
          "internalType": "bytes",
          "name": "_data",
          "type": "bytes"
        }
      ],
      "name": "safeTransferFrom",
      "outputs": [],
      "stateMutability": "nonpayable",
      "type": "function"
    },
    {
      "inputs": [
        {
          "internalType": "address",
          "name": "operator",
          "type": "address"
        },
        {
          "internalType": "bool",
          "name": "approved",
          "type": "bool"
        }
      ],
      "name": "setApprovalForAll",
      "outputs": [],
      "stateMutability": "nonpayable",
      "type": "function"
    },
    {
      "inputs": [
        {
          "internalType": "bytes4",
          "name": "interfaceId",
          "type": "bytes4"
        }
      ],
      "name": "supportsInterface",
      "outputs": [
        {
          "internalType": "bool",
          "name": "",
          "type": "bool"
        }
      ],
      "stateMutability": "view",
      "type": "function"
    },
    {
      "inputs": [],
      "name": "symbol",
      "outputs": [
        {
          "internalType": "string",
          "name": "",
          "type": "string"
        }
      ],
      "stateMutability": "view",
      "type": "function"
    },
    {
      "inputs": [
        {
          "internalType": "uint256",
          "name": "tokenId",
          "type": "uint256"
        }
      ],
      "name": "tokenURI",
      "outputs": [
        {
          "internalType": "string",
          "name": "",
          "type": "string"
        }
      ],
      "stateMutability": "view",
      "type": "function"
    },
    {
      "inputs": [
        {
          "internalType": "address",
          "name": "from",
          "type": "address"
        },
        {
          "internalType": "address",
          "name": "to",
          "type": "address"
        },
        {
          "internalType": "uint256",
          "name": "tokenId",
          "type": "uint256"
        }
      ],
      "name": "transferFrom",
      "outputs": [],
      "stateMutability": "nonpayable",
      "type": "function"
    }
  ],
  "bytecode": "0x608060405260405180610160016040528061012f81526020016200438061012f9139600890805190602001906200003892919062000662565b506040518060c001604052806040518060400160405280600481526020017f446f67200000000000000000000000000000000000000000000000000000000081525081526020016040518060400160405280600981526020017f4d722e205377616720000000000000000000000000000000000000000000000081525081526020016040518060400160405280600681526020017f486f6d657220000000000000000000000000000000000000000000000000000081525081526020016040518060400160405280600681526020017f422d646f6720000000000000000000000000000000000000000000000000000081525081526020016040518060400160405280600481526020017f417065200000000000000000000000000000000000000000000000000000000081525081526020016040518060400160405280600481526020017f4e697820000000000000000000000000000000000000000000000000000000008152508152506009906006620001b6929190620006f3565b506040518060c001604052806040518060400160405280600381526020017f697320000000000000000000000000000000000000000000000000000000000081525081526020016040518060400160405280600781526020017f7468726f7773200000000000000000000000000000000000000000000000000081525081526020016040518060400160405280600681526020017f737761677320000000000000000000000000000000000000000000000000000081525081526020016040518060400160405280600a81526020017f697320736b69696e67200000000000000000000000000000000000000000000081525081526020016040518060400160405280600681526020017f686f70657320000000000000000000000000000000000000000000000000000081525081526020016040518060400160405280600981526020017f64657374726f7973200000000000000000000000000000000000000000000000815250815250600a90600662000334929190620006f3565b506040518060c001604052806040518060400160405280600a81526020017f74686520776f726c64200000000000000000000000000000000000000000000081525081526020016040518060400160405280601981526020017f74686520666c616d65206f6620617765736f6d656e65737320000000000000008152508152602001604051806060016040528060218152602001620044af6021913981526020016040518060400160405280600981526020017f696e2061676f6e7920000000000000000000000000000000000000000000000081525081526020016040518060400160405280600981526020017f796f7572206d2a2a20000000000000000000000000000000000000000000000081525081526020016040518060400160405280600b81526020017f65766572797468696e6720000000000000000000000000000000000000000000815250815250600b90600662000496929190620006f3565b50348015620004a457600080fd5b506040518060400160405280600e81526020017f4f6e654c696e6572732d546573740000000000000000000000000000000000008152506040518060400160405280600581526020017f4f4e454c5400000000000000000000000000000000000000000000000000000081525081600090805190602001906200052992919062000662565b5080600190805190602001906200054292919062000662565b505050620005906040518060400160405280601081526020017f54686973206973204f6e654c696e6572000000000000000000000000000000008152506200059660201b620010fb1760201c565b62000914565b6200063681604051602401620005ad919062000828565b6040516020818303038152906040527f41304fac000000000000000000000000000000000000000000000000000000007bffffffffffffffffffffffffffffffffffffffffffffffffffffffff19166020820180517bffffffffffffffffffffffffffffffffffffffffffffffffffffffff83818316178352505050506200063960201b60201c565b50565b60008151905060006a636f6e736f6c652e6c6f679050602083016000808483855afa5050505050565b82805462000670906200089e565b90600052602060002090601f016020900481019282620006945760008555620006e0565b82601f10620006af57805160ff1916838001178555620006e0565b82800160010185558215620006e0579182015b82811115620006df578251825591602001919060010190620006c2565b5b509050620006ef91906200075a565b5090565b82805482825590600052602060002090810192821562000747579160200282015b82811115620007465782518290805190602001906200073592919062000662565b509160200191906001019062000714565b5b50905062000756919062000779565b5090565b5b80821115620007755760008160009055506001016200075b565b5090565b5b808211156200079d5760008181620007939190620007a1565b506001016200077a565b5090565b508054620007af906200089e565b6000825580601f10620007c35750620007e4565b601f016020900490600052602060002090810190620007e391906200075a565b5b50565b6000620007f4826200084c565b62000800818562000857565b93506200081281856020860162000868565b6200081d8162000903565b840191505092915050565b60006020820190508181036000830152620008448184620007e7565b905092915050565b600081519050919050565b600082825260208201905092915050565b60005b83811015620008885780820151818401526020810190506200086b565b8381111562000898576000848401525b50505050565b60006002820490506001821680620008b757607f821691505b60208210811415620008ce57620008cd620008d4565b5b50919050565b7f4e487b7100000000000000000000000000000000000000000000000000000000600052602260045260246000fd5b6000601f19601f8301169050919050565b613a5c80620009246000396000f3fe608060405234801561001057600080fd5b50600436106101165760003560e01c806361bdbcc2116100a2578063a22cb46511610071578063a22cb46514610305578063b187301f14610321578063b88d4fde14610351578063c87b56dd1461036d578063e985e9c51461039d57610116565b806361bdbcc2146102575780636352211e1461028757806370a08231146102b757806395d89b41146102e757610116565b8063095ea7b3116100e9578063095ea7b3146101b757806323b872dd146101d35780632de38d68146101ef578063385e33e71461021f57806342842e0e1461023b57610116565b806301ffc9a71461011b578063060475901461014b57806306fdde0314610169578063081812fc14610187575b600080fd5b61013560048036038101906101309190612570565b6103cd565b6040516101429190612c23565b60405180910390f35b6101536104af565b6040516101609190612ebe565b60405180910390f35b6101716104c0565b60405161017e9190612c3e565b60405180910390f35b6101a1600480360381019061019c9190612603565b610552565b6040516101ae9190612b93565b60405180910390f35b6101d160048036038101906101cc9190612534565b6105d7565b005b6101ed60048036038101906101e8919061242e565b6106ef565b005b61020960048036038101906102049190612603565b61074f565b6040516102169190612c3e565b60405180910390f35b610239600480360381019061023491906125c2565b61086d565b005b6102556004803603810190610250919061242e565b610a45565b005b610271600480360381019061026c9190612603565b610a65565b60405161027e9190612c3e565b60405180910390f35b6102a1600480360381019061029c9190612603565b610b83565b6040516102ae9190612b93565b60405180910390f35b6102d160048036038101906102cc91906123c9565b610c35565b6040516102de9190612ebe565b60405180910390f35b6102ef610ced565b6040516102fc9190612c3e565b60405180910390f35b61031f600480360381019061031a91906124f8565b610d7f565b005b61033b60048036038101906103369190612603565b610d95565b6040516103489190612c3e565b60405180910390f35b61036b6004803603810190610366919061247d565b610eb3565b005b61038760048036038101906103829190612603565b610f15565b6040516103949190612c3e565b60405180910390f35b6103b760048036038101906103b291906123f2565b611067565b6040516103c49190612c23565b60405180910390f35b60007f80ac58cd000000000000000000000000000000000000000000000000000000007bffffffffffffffffffffffffffffffffffffffffffffffffffffffff1916827bffffffffffffffffffffffffffffffffffffffffffffffffffffffff1916148061049857507f5b5e139f000000000000000000000000000000000000000000000000000000007bffffffffffffffffffffffffffffffffffffffffffffffffffffffff1916827bffffffffffffffffffffffffffffffffffffffffffffffffffffffff1916145b806104a857506104a782611194565b5b9050919050565b60006104bb60076111fe565b905090565b6060600080546104cf90613183565b80601f01602080910402602001604051908101604052809291908181526020018280546104fb90613183565b80156105485780601f1061051d57610100808354040283529160200191610548565b820191906000526020600020905b81548152906001019060200180831161052b57829003601f168201915b5050505050905090565b600061055d8261120c565b61059c576040517f08c379a000000000000000000000000000000000000000000000000000000000815260040161059390612e3e565b60405180910390fd5b6004600083815260200190815260200160002060009054906101000a900473ffffffffffffffffffffffffffffffffffffffff169050919050565b60006105e282610b83565b90508073ffffffffffffffffffffffffffffffffffffffff168373ffffffffffffffffffffffffffffffffffffffff161415610653576040517f08c379a000000000000000000000000000000000000000000000000000000000815260040161064a90612e7e565b60405180910390fd5b8073ffffffffffffffffffffffffffffffffffffffff16610672611278565b73ffffffffffffffffffffffffffffffffffffffff1614806106a157506106a08161069b611278565b611067565b5b6106e0576040517f08c379a00000000000000000000000000000000000000000000000000000000081526004016106d790612d5e565b60405180910390fd5b6106ea8383611280565b505050565b6107006106fa611278565b82611339565b61073f576040517f08c379a000000000000000000000000000000000000000000000000000000000815260040161073690612e9e565b60405180910390fd5b61074a838383611417565b505050565b6060600061078361075f8461167e565b60405160200161076f9190612b4f565b60405160208183030381529060405261182b565b905060098054905081610796919061322f565b9050600981815481106107d2577f4e487b7100000000000000000000000000000000000000000000000000000000600052603260045260246000fd5b9060005260206000200180546107e790613183565b80601f016020809104026020016040519081016040528092919081815260200182805461081390613183565b80156108605780601f1061083557610100808354040283529160200191610860565b820191906000526020600020905b81548152906001019060200180831161084357829003601f168201915b5050505050915050919050565b600061087960076111fe565b9050601581106108be576040517f08c379a00000000000000000000000000000000000000000000000000000000081526004016108b590612dde565b60405180910390fd5b60006008836040516020016108d4929190612adb565b60405160208183030381529060405290506000610919846108f48461185e565b604051602001610905929190612b0a565b60405160208183030381529060405261185e565b905060008160405160200161092e9190612b71565b604051602081830303815290604052905061097d6040518060400160405280601581526020017f0a2d2d2d2d2d2d2d2d2d2d2d2d2d2d2d2d2d2d2d2d00000000000000000000008152506110fb565b610986816110fb565b6109c46040518060400160405280601581526020017f2d2d2d2d2d2d2d2d2d2d2d2d2d2d2d2d2d2d2d2d0a00000000000000000000008152506110fb565b6109ce33856119fd565b6109d88482611a1b565b6109fb6040518060600160405280602881526020016139ff602891398533611a8f565b610a056007611b2e565b7f06f01db09865b3db2ebf790f9af156cb2e19f138b09917755a541804fd2f82ef3385604051610a36929190612bfa565b60405180910390a15050505050565b610a6083838360405180602001604052806000815250610eb3565b505050565b60606000610a99610a758461167e565b604051602001610a859190612b4f565b60405160208183030381529060405261182b565b9050600b8054905081610aac919061322f565b9050600b8181548110610ae8577f4e487b7100000000000000000000000000000000000000000000000000000000600052603260045260246000fd5b906000526020600020018054610afd90613183565b80601f0160208091040260200160405190810160405280929190818152602001828054610b2990613183565b8015610b765780601f10610b4b57610100808354040283529160200191610b76565b820191906000526020600020905b815481529060010190602001808311610b5957829003601f168201915b5050505050915050919050565b6000806002600084815260200190815260200160002060009054906101000a900473ffffffffffffffffffffffffffffffffffffffff169050600073ffffffffffffffffffffffffffffffffffffffff168173ffffffffffffffffffffffffffffffffffffffff161415610c2c576040517f08c379a0000000000000000000000000000000000000000000000000000000008152600401610c2390612d9e565b60405180910390fd5b80915050919050565b60008073ffffffffffffffffffffffffffffffffffffffff168273ffffffffffffffffffffffffffffffffffffffff161415610ca6576040517f08c379a0000000000000000000000000000000000000000000000000000000008152600401610c9d90612d7e565b60405180910390fd5b600360008373ffffffffffffffffffffffffffffffffffffffff1673ffffffffffffffffffffffffffffffffffffffff168152602001908152602001600020549050919050565b606060018054610cfc90613183565b80601f0160208091040260200160405190810160405280929190818152602001828054610d2890613183565b8015610d755780601f10610d4a57610100808354040283529160200191610d75565b820191906000526020600020905b815481529060010190602001808311610d5857829003601f168201915b5050505050905090565b610d91610d8a611278565b8383611b44565b5050565b60606000610dc9610da58461167e565b604051602001610db59190612b4f565b60405160208183030381529060405261182b565b9050600a8054905081610ddc919061322f565b9050600a8181548110610e18577f4e487b7100000000000000000000000000000000000000000000000000000000600052603260045260246000fd5b906000526020600020018054610e2d90613183565b80601f0160208091040260200160405190810160405280929190818152602001828054610e5990613183565b8015610ea65780601f10610e7b57610100808354040283529160200191610ea6565b820191906000526020600020905b815481529060010190602001808311610e8957829003601f168201915b5050505050915050919050565b610ec4610ebe611278565b83611339565b610f03576040517f08c379a0000000000000000000000000000000000000000000000000000000008152600401610efa90612e9e565b60405180910390fd5b610f0f84848484611cb1565b50505050565b6060610f208261120c565b610f5f576040517f08c379a0000000000000000000000000000000000000000000000000000000008152600401610f5690612e1e565b60405180910390fd5b6000600660008481526020019081526020016000208054610f7f90613183565b80601f0160208091040260200160405190810160405280929190818152602001828054610fab90613183565b8015610ff85780601f10610fcd57610100808354040283529160200191610ff8565b820191906000526020600020905b815481529060010190602001808311610fdb57829003601f168201915b505050505090506000611009611d0d565b905060008151141561101f578192505050611062565b60008251111561105457808260405160200161103c929190612ab7565b60405160208183030381529060405292505050611062565b61105d84611d24565b925050505b919050565b6000600560008473ffffffffffffffffffffffffffffffffffffffff1673ffffffffffffffffffffffffffffffffffffffff16815260200190815260200160002060008373ffffffffffffffffffffffffffffffffffffffff1673ffffffffffffffffffffffffffffffffffffffff16815260200190815260200160002060009054906101000a900460ff16905092915050565b6111918160405160240161110f9190612c3e565b6040516020818303038152906040527f41304fac000000000000000000000000000000000000000000000000000000007bffffffffffffffffffffffffffffffffffffffffffffffffffffffff19166020820180517bffffffffffffffffffffffffffffffffffffffffffffffffffffffff8381831617835250505050611dcb565b50565b60007f01ffc9a7000000000000000000000000000000000000000000000000000000007bffffffffffffffffffffffffffffffffffffffffffffffffffffffff1916827bffffffffffffffffffffffffffffffffffffffffffffffffffffffff1916149050919050565b600081600001549050919050565b60008073ffffffffffffffffffffffffffffffffffffffff166002600084815260200190815260200160002060009054906101000a900473ffffffffffffffffffffffffffffffffffffffff1673ffffffffffffffffffffffffffffffffffffffff1614159050919050565b600033905090565b816004600083815260200190815260200160002060006101000a81548173ffffffffffffffffffffffffffffffffffffffff021916908373ffffffffffffffffffffffffffffffffffffffff160217905550808273ffffffffffffffffffffffffffffffffffffffff166112f383610b83565b73ffffffffffffffffffffffffffffffffffffffff167f8c5be1e5ebec7d5bd14f71427d1e84f3dd0314c0f7b2291e5b200ac8c7c3b92560405160405180910390a45050565b60006113448261120c565b611383576040517f08c379a000000000000000000000000000000000000000000000000000000000815260040161137a90612d3e565b60405180910390fd5b600061138e83610b83565b90508073ffffffffffffffffffffffffffffffffffffffff168473ffffffffffffffffffffffffffffffffffffffff1614806113fd57508373ffffffffffffffffffffffffffffffffffffffff166113e584610552565b73ffffffffffffffffffffffffffffffffffffffff16145b8061140e575061140d8185611067565b5b91505092915050565b8273ffffffffffffffffffffffffffffffffffffffff1661143782610b83565b73ffffffffffffffffffffffffffffffffffffffff161461148d576040517f08c379a000000000000000000000000000000000000000000000000000000000815260040161148490612cbe565b60405180910390fd5b600073ffffffffffffffffffffffffffffffffffffffff168273ffffffffffffffffffffffffffffffffffffffff1614156114fd576040517f08c379a00000000000000000000000000000000000000000000000000000000081526004016114f490612cfe565b60405180910390fd5b611508838383611df4565b611513600082611280565b6001600360008573ffffffffffffffffffffffffffffffffffffffff1673ffffffffffffffffffffffffffffffffffffffff16815260200190815260200160002060008282546115639190613099565b925050819055506001600360008473ffffffffffffffffffffffffffffffffffffffff1673ffffffffffffffffffffffffffffffffffffffff16815260200190815260200160002060008282546115ba9190612fb8565b92505081905550816002600083815260200190815260200160002060006101000a81548173ffffffffffffffffffffffffffffffffffffffff021916908373ffffffffffffffffffffffffffffffffffffffff160217905550808273ffffffffffffffffffffffffffffffffffffffff168473ffffffffffffffffffffffffffffffffffffffff167fddf252ad1be2c89b69c2b068fc378daa952ba7f163c4a11628f55a4df523b3ef60405160405180910390a4611679838383611df9565b505050565b606060008214156116c6576040518060400160405280600181526020017f30000000000000000000000000000000000000000000000000000000000000008152509050611826565b600082905060005b600082146116f85780806116e1906131e6565b915050600a826116f1919061300e565b91506116ce565b60008167ffffffffffffffff81111561173a577f4e487b7100000000000000000000000000000000000000000000000000000000600052604160045260246000fd5b6040519080825280601f01601f19166020018201604052801561176c5781602001600182028036833780820191505090505b5090505b6000851461181f576001826117859190613099565b9150600a85611794919061322f565b60306117a09190612fb8565b60f81b8183815181106117dc577f4e487b7100000000000000000000000000000000000000000000000000000000600052603260045260246000fd5b60200101907effffffffffffffffffffffffffffffffffffffffffffffffffffffffffffff1916908160001a905350600a85611818919061300e565b9450611770565b8093505050505b919050565b60008160405160200161183e9190612aa0565b6040516020818303038152906040528051906020012060001c9050919050565b6060600082511415611881576040518060200160405280600081525090506119f8565b60006040518060600160405280604081526020016139bf60409139905060006003600285516118b09190612fb8565b6118ba919061300e565b60046118c6919061303f565b905060006020826118d79190612fb8565b67ffffffffffffffff811115611916577f4e487b7100000000000000000000000000000000000000000000000000000000600052604160045260246000fd5b6040519080825280601f01601f1916602001820160405280156119485781602001600182028036833780820191505090505b509050818152600183018586518101602084015b818310156119b7576003830192508251603f8160121c168501518253600182019150603f81600c1c168501518253600182019150603f8160061c168501518253600182019150603f811685015182536001820191505061195c565b6003895106600181146119d157600281146119e1576119ec565b613d3d60f01b60028303526119ec565b603d60f81b60018303525b50505050508093505050505b919050565b611a17828260405180602001604052806000815250611dfe565b5050565b611a248261120c565b611a63576040517f08c379a0000000000000000000000000000000000000000000000000000000008152600401611a5a90612dbe565b60405180910390fd5b80600660008481526020019081526020016000209080519060200190611a8a9291906121ed565b505050565b611b29838383604051602401611aa793929190612c60565b6040516020818303038152906040527fe3849f79000000000000000000000000000000000000000000000000000000007bffffffffffffffffffffffffffffffffffffffffffffffffffffffff19166020820180517bffffffffffffffffffffffffffffffffffffffffffffffffffffffff8381831617835250505050611dcb565b505050565b6001816000016000828254019250508190555050565b8173ffffffffffffffffffffffffffffffffffffffff168373ffffffffffffffffffffffffffffffffffffffff161415611bb3576040517f08c379a0000000000000000000000000000000000000000000000000000000008152600401611baa90612d1e565b60405180910390fd5b80600560008573ffffffffffffffffffffffffffffffffffffffff1673ffffffffffffffffffffffffffffffffffffffff16815260200190815260200160002060008473ffffffffffffffffffffffffffffffffffffffff1673ffffffffffffffffffffffffffffffffffffffff16815260200190815260200160002060006101000a81548160ff0219169083151502179055508173ffffffffffffffffffffffffffffffffffffffff168373ffffffffffffffffffffffffffffffffffffffff167f17307eab39ab6107e8899845ad3d59bd9653f200f220920489ca2b5937696c3183604051611ca49190612c23565b60405180910390a3505050565b611cbc848484611417565b611cc884848484611e59565b611d07576040517f08c379a0000000000000000000000000000000000000000000000000000000008152600401611cfe90612c9e565b60405180910390fd5b50505050565b606060405180602001604052806000815250905090565b6060611d2f8261120c565b611d6e576040517f08c379a0000000000000000000000000000000000000000000000000000000008152600401611d6590612e5e565b60405180910390fd5b6000611d78611d0d565b90506000815111611d985760405180602001604052806000815250611dc3565b80611da28461167e565b604051602001611db3929190612ab7565b6040516020818303038152906040525b915050919050565b60008151905060006a636f6e736f6c652e6c6f679050602083016000808483855afa5050505050565b505050565b505050565b611e088383611ff0565b611e156000848484611e59565b611e54576040517f08c379a0000000000000000000000000000000000000000000000000000000008152600401611e4b90612c9e565b60405180910390fd5b505050565b6000611e7a8473ffffffffffffffffffffffffffffffffffffffff166121ca565b15611fe3578373ffffffffffffffffffffffffffffffffffffffff1663150b7a02611ea3611278565b8786866040518563ffffffff1660e01b8152600401611ec59493929190612bae565b602060405180830381600087803b158015611edf57600080fd5b505af1925050508015611f1057506040513d601f19601f82011682018060405250810190611f0d9190612599565b60015b611f93573d8060008114611f40576040519150601f19603f3d011682016040523d82523d6000602084013e611f45565b606091505b50600081511415611f8b576040517f08c379a0000000000000000000000000000000000000000000000000000000008152600401611f8290612c9e565b60405180910390fd5b805181602001fd5b63150b7a0260e01b7bffffffffffffffffffffffffffffffffffffffffffffffffffffffff1916817bffffffffffffffffffffffffffffffffffffffffffffffffffffffff191614915050611fe8565b600190505b949350505050565b600073ffffffffffffffffffffffffffffffffffffffff168273ffffffffffffffffffffffffffffffffffffffff161415612060576040517f08c379a000000000000000000000000000000000000000000000000000000000815260040161205790612dfe565b60405180910390fd5b6120698161120c565b156120a9576040517f08c379a00000000000000000000000000000000000000000000000000000000081526004016120a090612cde565b60405180910390fd5b6120b560008383611df4565b6001600360008473ffffffffffffffffffffffffffffffffffffffff1673ffffffffffffffffffffffffffffffffffffffff16815260200190815260200160002060008282546121059190612fb8565b92505081905550816002600083815260200190815260200160002060006101000a81548173ffffffffffffffffffffffffffffffffffffffff021916908373ffffffffffffffffffffffffffffffffffffffff160217905550808273ffffffffffffffffffffffffffffffffffffffff16600073ffffffffffffffffffffffffffffffffffffffff167fddf252ad1be2c89b69c2b068fc378daa952ba7f163c4a11628f55a4df523b3ef60405160405180910390a46121c660008383611df9565b5050565b6000808273ffffffffffffffffffffffffffffffffffffffff163b119050919050565b8280546121f990613183565b90600052602060002090601f01602090048101928261221b5760008555612262565b82601f1061223457805160ff1916838001178555612262565b82800160010185558215612262579182015b82811115612261578251825591602001919060010190612246565b5b50905061226f9190612273565b5090565b5b8082111561228c576000816000905550600101612274565b5090565b60006122a361229e84612efe565b612ed9565b9050828152602081018484840111156122bb57600080fd5b6122c6848285613141565b509392505050565b60006122e16122dc84612f2f565b612ed9565b9050828152602081018484840111156122f957600080fd5b612304848285613141565b509392505050565b60008135905061231b81613962565b92915050565b60008135905061233081613979565b92915050565b60008135905061234581613990565b92915050565b60008151905061235a81613990565b92915050565b600082601f83011261237157600080fd5b8135612381848260208601612290565b91505092915050565b600082601f83011261239b57600080fd5b81356123ab8482602086016122ce565b91505092915050565b6000813590506123c3816139a7565b92915050565b6000602082840312156123db57600080fd5b60006123e98482850161230c565b91505092915050565b6000806040838503121561240557600080fd5b60006124138582860161230c565b92505060206124248582860161230c565b9150509250929050565b60008060006060848603121561244357600080fd5b60006124518682870161230c565b93505060206124628682870161230c565b9250506040612473868287016123b4565b9150509250925092565b6000806000806080858703121561249357600080fd5b60006124a18782880161230c565b94505060206124b28782880161230c565b93505060406124c3878288016123b4565b925050606085013567ffffffffffffffff8111156124e057600080fd5b6124ec87828801612360565b91505092959194509250565b6000806040838503121561250b57600080fd5b60006125198582860161230c565b925050602061252a85828601612321565b9150509250929050565b6000806040838503121561254757600080fd5b60006125558582860161230c565b9250506020612566858286016123b4565b9150509250929050565b60006020828403121561258257600080fd5b600061259084828501612336565b91505092915050565b6000602082840312156125ab57600080fd5b60006125b98482850161234b565b91505092915050565b6000602082840312156125d457600080fd5b600082013567ffffffffffffffff8111156125ee57600080fd5b6125fa8482850161238a565b91505092915050565b60006020828403121561261557600080fd5b6000612623848285016123b4565b91505092915050565b612635816130cd565b82525050565b612644816130df565b82525050565b600061265582612f75565b61265f8185612f8b565b935061266f818560208601613150565b6126788161331c565b840191505092915050565b600061268e82612f80565b6126988185612f9c565b93506126a8818560208601613150565b6126b18161331c565b840191505092915050565b60006126c782612f80565b6126d18185612fad565b93506126e1818560208601613150565b80840191505092915050565b600081546126fa81613183565b6127048186612fad565b9450600182166000811461271f576001811461273057612763565b60ff19831686528186019350612763565b61273985612f60565b60005b8381101561275b5781548189015260018201915060208101905061273c565b838801955050505b50505092915050565b6000612779603283612f9c565b91506127848261332d565b604082019050919050565b600061279c602583612f9c565b91506127a78261337c565b604082019050919050565b60006127bf601c83612f9c565b91506127ca826133cb565b602082019050919050565b60006127e2602483612f9c565b91506127ed826133f4565b604082019050919050565b6000612805601983612f9c565b915061281082613443565b602082019050919050565b6000612828606383612fad565b91506128338261346c565b606382019050919050565b600061284b602c83612f9c565b915061285682613507565b604082019050919050565b600061286e600d83612fad565b915061287982613556565b600d82019050919050565b6000612891603883612f9c565b915061289c8261357f565b604082019050919050565b60006128b4602a83612f9c565b91506128bf826135ce565b604082019050919050565b60006128d7602983612f9c565b91506128e28261361d565b604082019050919050565b60006128fa602e83612f9c565b91506129058261366c565b604082019050919050565b600061291d600283612fad565b9150612928826136bb565b600282019050919050565b6000612940602c83612f9c565b915061294b826136e4565b604082019050919050565b6000612963602083612f9c565b915061296e82613733565b602082019050919050565b6000612986603183612f9c565b91506129918261375c565b604082019050919050565b60006129a9602c83612f9c565b91506129b4826137ab565b604082019050919050565b60006129cc602f83612f9c565b91506129d7826137fa565b604082019050919050565b60006129ef600a83612fad565b91506129fa82613849565b600a82019050919050565b6000612a12602183612f9c565b9150612a1d82613872565b604082019050919050565b6000612a35600a83612fad565b9150612a40826138c1565b600a82019050919050565b6000612a58601d83612fad565b9150612a63826138ea565b601d82019050919050565b6000612a7b603183612f9c565b9150612a8682613913565b604082019050919050565b612a9a81613137565b82525050565b6000612aac82846126bc565b915081905092915050565b6000612ac382856126bc565b9150612acf82846126bc565b91508190509392505050565b6000612ae782856126ed565b9150612af382846126bc565b9150612afe82612861565b91508190509392505050565b6000612b15826129e2565b9150612b2182856126bc565b9150612b2c8261281b565b9150612b3882846126bc565b9150612b4382612910565b91508190509392505050565b6000612b5a82612a28565b9150612b6682846126bc565b915081905092915050565b6000612b7c82612a4b565b9150612b8882846126bc565b915081905092915050565b6000602082019050612ba8600083018461262c565b92915050565b6000608082019050612bc3600083018761262c565b612bd0602083018661262c565b612bdd6040830185612a91565b8181036060830152612bef818461264a565b905095945050505050565b6000604082019050612c0f600083018561262c565b612c1c6020830184612a91565b9392505050565b6000602082019050612c38600083018461263b565b92915050565b60006020820190508181036000830152612c588184612683565b905092915050565b60006060820190508181036000830152612c7a8186612683565b9050612c896020830185612a91565b612c96604083018461262c565b949350505050565b60006020820190508181036000830152612cb78161276c565b9050919050565b60006020820190508181036000830152612cd78161278f565b9050919050565b60006020820190508181036000830152612cf7816127b2565b9050919050565b60006020820190508181036000830152612d17816127d5565b9050919050565b60006020820190508181036000830152612d37816127f8565b9050919050565b60006020820190508181036000830152612d578161283e565b9050919050565b60006020820190508181036000830152612d7781612884565b9050919050565b60006020820190508181036000830152612d97816128a7565b9050919050565b60006020820190508181036000830152612db7816128ca565b9050919050565b60006020820190508181036000830152612dd7816128ed565b9050919050565b60006020820190508181036000830152612df781612933565b9050919050565b60006020820190508181036000830152612e1781612956565b9050919050565b60006020820190508181036000830152612e3781612979565b9050919050565b60006020820190508181036000830152612e578161299c565b9050919050565b60006020820190508181036000830152612e77816129bf565b9050919050565b60006020820190508181036000830152612e9781612a05565b9050919050565b60006020820190508181036000830152612eb781612a6e565b9050919050565b6000602082019050612ed36000830184612a91565b92915050565b6000612ee3612ef4565b9050612eef82826131b5565b919050565b6000604051905090565b600067ffffffffffffffff821115612f1957612f186132ed565b5b612f228261331c565b9050602081019050919050565b600067ffffffffffffffff821115612f4a57612f496132ed565b5b612f538261331c565b9050602081019050919050565b60008190508160005260206000209050919050565b600081519050919050565b600081519050919050565b600082825260208201905092915050565b600082825260208201905092915050565b600081905092915050565b6000612fc382613137565b9150612fce83613137565b9250827fffffffffffffffffffffffffffffffffffffffffffffffffffffffffffffffff0382111561300357613002613260565b5b828201905092915050565b600061301982613137565b915061302483613137565b9250826130345761303361328f565b5b828204905092915050565b600061304a82613137565b915061305583613137565b9250817fffffffffffffffffffffffffffffffffffffffffffffffffffffffffffffffff048311821515161561308e5761308d613260565b5b828202905092915050565b60006130a482613137565b91506130af83613137565b9250828210156130c2576130c1613260565b5b828203905092915050565b60006130d882613117565b9050919050565b60008115159050919050565b60007fffffffff0000000000000000000000000000000000000000000000000000000082169050919050565b600073ffffffffffffffffffffffffffffffffffffffff82169050919050565b6000819050919050565b82818337600083830152505050565b60005b8381101561316e578082015181840152602081019050613153565b8381111561317d576000848401525b50505050565b6000600282049050600182168061319b57607f821691505b602082108114156131af576131ae6132be565b5b50919050565b6131be8261331c565b810181811067ffffffffffffffff821117156131dd576131dc6132ed565b5b80604052505050565b60006131f182613137565b91507fffffffffffffffffffffffffffffffffffffffffffffffffffffffffffffffff82141561322457613223613260565b5b600182019050919050565b600061323a82613137565b915061324583613137565b9250826132555761325461328f565b5b828206905092915050565b7f4e487b7100000000000000000000000000000000000000000000000000000000600052601160045260246000fd5b7f4e487b7100000000000000000000000000000000000000000000000000000000600052601260045260246000fd5b7f4e487b7100000000000000000000000000000000000000000000000000000000600052602260045260246000fd5b7f4e487b7100000000000000000000000000000000000000000000000000000000600052604160045260246000fd5b6000601f19601f8301169050919050565b7f4552433732313a207472616e7366657220746f206e6f6e20455243373231526560008201527f63656976657220696d706c656d656e7465720000000000000000000000000000602082015250565b7f4552433732313a207472616e736665722066726f6d20696e636f72726563742060008201527f6f776e6572000000000000000000000000000000000000000000000000000000602082015250565b7f4552433732313a20746f6b656e20616c7265616479206d696e74656400000000600082015250565b7f4552433732313a207472616e7366657220746f20746865207a65726f2061646460008201527f7265737300000000000000000000000000000000000000000000000000000000602082015250565b7f4552433732313a20617070726f766520746f2063616c6c657200000000000000600082015250565b7f222c20226465736372697074696f6e223a20224120686967686c79206163636c60008201527f61696d656420636f6c6c656374696f6e206f6620737175617265732e222c202260208201527f696d616765223a2022646174613a696d6167652f7376672b786d6c3b6261736560408201527f36342c0000000000000000000000000000000000000000000000000000000000606082015250565b7f4552433732313a206f70657261746f7220717565727920666f72206e6f6e657860008201527f697374656e7420746f6b656e0000000000000000000000000000000000000000602082015250565b7f3c2f746578743e3c2f7376673e00000000000000000000000000000000000000600082015250565b7f4552433732313a20617070726f76652063616c6c6572206973206e6f74206f7760008201527f6e6572206e6f7220617070726f76656420666f7220616c6c0000000000000000602082015250565b7f4552433732313a2062616c616e636520717565727920666f7220746865207a6560008201527f726f206164647265737300000000000000000000000000000000000000000000602082015250565b7f4552433732313a206f776e657220717565727920666f72206e6f6e657869737460008201527f656e7420746f6b656e0000000000000000000000000000000000000000000000602082015250565b7f45524337323155524953746f726167653a2055524920736574206f66206e6f6e60008201527f6578697374656e7420746f6b656e000000000000000000000000000000000000602082015250565b7f227d000000000000000000000000000000000000000000000000000000000000600082015250565b7f43616e6e6f74206265206d6f7265207468616e203530204e46547320696e207460008201527f68697320636f6e74726163740000000000000000000000000000000000000000602082015250565b7f4552433732313a206d696e7420746f20746865207a65726f2061646472657373600082015250565b7f45524337323155524953746f726167653a2055524920717565727920666f722060008201527f6e6f6e6578697374656e7420746f6b656e000000000000000000000000000000602082015250565b7f4552433732313a20617070726f76656420717565727920666f72206e6f6e657860008201527f697374656e7420746f6b656e0000000000000000000000000000000000000000602082015250565b7f4552433732314d657461646174613a2055524920717565727920666f72206e6f60008201527f6e6578697374656e7420746f6b656e0000000000000000000000000000000000602082015250565b7f7b226e616d65223a202200000000000000000000000000000000000000000000600082015250565b7f4552433732313a20617070726f76616c20746f2063757272656e74206f776e6560008201527f7200000000000000000000000000000000000000000000000000000000000000602082015250565b7f46495253545f574f524400000000000000000000000000000000000000000000600082015250565b7f646174613a6170706c69636174696f6e2f6a736f6e3b6261736536342c000000600082015250565b7f4552433732313a207472616e736665722063616c6c6572206973206e6f74206f60008201527f776e6572206e6f7220617070726f766564000000000000000000000000000000602082015250565b61396b816130cd565b811461397657600080fd5b50565b613982816130df565b811461398d57600080fd5b50565b613999816130eb565b81146139a457600080fd5b50565b6139b081613137565b81146139bb57600080fd5b5056fe4142434445464748494a4b4c4d4e4f505152535455565758595a6162636465666768696a6b6c6d6e6f707172737475767778797a303132333435363738392b2f416e204e465420776974682049443a20257320686173206265656e206d696e74656420746f202573a2646970667358221220254e25234c1041a1227ba6537c29f840dce3e992a44f4c71a4307576f4ed990464736f6c634300080100333c73766720786d6c6e733d27687474703a2f2f7777772e77332e6f72672f323030302f73766727207072657365727665417370656374526174696f3d27784d696e594d696e206d656574272076696577426f783d273020302033353020333530273e3c7374796c653e2e62617365207b2066696c6c3a2077686974653b20666f6e742d66616d696c793a2073657269663b20666f6e742d73697a653a20323470783b207d3c2f7374796c653e3c726563742077696474683d273130302527206865696768743d2731303025272066696c6c3d27626c61636b27202f3e3c7465787420783d273530252720793d273530252720636c6173733d27626173652720646f6d696e616e742d626173656c696e653d276d6964646c652720746578742d616e63686f723d276d6964646c65273e6472697665732074686520737761676765722d737761676765722d747261696e20",
  "linkReferences": {},
  "deployedLinkReferences": {}
}